{
  "address": "0x9F543b3f1eB37B2540749dF537e83d29309ECc02",
  "abi": [
    {
      "inputs": [
        {
          "internalType": "address",
          "name": "sonne_",
          "type": "address"
        },
        {
          "internalType": "address",
          "name": "claimable_",
          "type": "address"
        },
        {
          "internalType": "address",
          "name": "admin_",
          "type": "address"
        }
      ],
      "stateMutability": "nonpayable",
      "type": "constructor"
    },
    {
      "anonymous": false,
      "inputs": [
        {
          "indexed": true,
          "internalType": "address",
          "name": "account",
          "type": "address"
        },
        {
          "indexed": false,
          "internalType": "uint256",
          "name": "amount",
          "type": "uint256"
        }
      ],
      "name": "Claim",
      "type": "event"
    },
    {
      "anonymous": false,
      "inputs": [
        {
          "indexed": true,
          "internalType": "address",
          "name": "account",
          "type": "address"
        },
        {
          "indexed": false,
          "internalType": "uint256",
          "name": "shares",
          "type": "uint256"
        },
        {
          "indexed": false,
          "internalType": "uint256",
          "name": "totalShares",
          "type": "uint256"
        }
      ],
      "name": "EditRecipient",
      "type": "event"
    },
    {
      "anonymous": false,
      "inputs": [
        {
          "indexed": false,
          "internalType": "address",
          "name": "newAdmin",
          "type": "address"
        }
      ],
      "name": "SetAdmin",
      "type": "event"
    },
    {
      "anonymous": false,
      "inputs": [
        {
          "indexed": true,
          "internalType": "address",
          "name": "account",
          "type": "address"
        },
        {
          "indexed": false,
          "internalType": "uint256",
          "name": "lastShareIndex",
          "type": "uint256"
        },
        {
          "indexed": false,
          "internalType": "uint256",
          "name": "credit",
          "type": "uint256"
        }
      ],
      "name": "UpdateCredit",
      "type": "event"
    },
    {
      "anonymous": false,
      "inputs": [
        {
          "indexed": false,
          "internalType": "uint256",
          "name": "shareIndex",
          "type": "uint256"
        }
      ],
      "name": "UpdateShareIndex",
      "type": "event"
    },
    {
      "inputs": [],
      "name": "admin",
      "outputs": [
        {
          "internalType": "address",
          "name": "",
          "type": "address"
        }
      ],
      "stateMutability": "view",
      "type": "function"
    },
    {
      "inputs": [],
      "name": "claim",
      "outputs": [
        {
          "internalType": "uint256",
          "name": "amount",
          "type": "uint256"
        }
      ],
      "stateMutability": "nonpayable",
      "type": "function"
    },
    {
      "inputs": [],
      "name": "claimable",
      "outputs": [
        {
          "internalType": "address",
          "name": "",
          "type": "address"
        }
      ],
      "stateMutability": "view",
      "type": "function"
    },
    {
      "inputs": [
        {
          "internalType": "address",
          "name": "account",
          "type": "address"
        },
        {
          "internalType": "uint256",
          "name": "shares",
          "type": "uint256"
        }
      ],
      "name": "editRecipient",
      "outputs": [],
      "stateMutability": "nonpayable",
      "type": "function"
    },
    {
      "inputs": [
        {
          "internalType": "address",
          "name": "",
          "type": "address"
        }
      ],
      "name": "recipients",
      "outputs": [
        {
          "internalType": "uint256",
          "name": "shares",
          "type": "uint256"
        },
        {
          "internalType": "uint256",
          "name": "lastShareIndex",
          "type": "uint256"
        },
        {
          "internalType": "uint256",
          "name": "credit",
          "type": "uint256"
        }
      ],
      "stateMutability": "view",
      "type": "function"
    },
    {
      "inputs": [
        {
          "internalType": "address",
          "name": "admin_",
          "type": "address"
        }
      ],
      "name": "setAdmin",
      "outputs": [],
      "stateMutability": "nonpayable",
      "type": "function"
    },
    {
      "inputs": [],
      "name": "shareIndex",
      "outputs": [
        {
          "internalType": "uint256",
          "name": "",
          "type": "uint256"
        }
      ],
      "stateMutability": "view",
      "type": "function"
    },
    {
      "inputs": [],
      "name": "sonne",
      "outputs": [
        {
          "internalType": "address",
          "name": "",
          "type": "address"
        }
      ],
      "stateMutability": "view",
      "type": "function"
    },
    {
      "inputs": [],
      "name": "totalShares",
      "outputs": [
        {
          "internalType": "uint256",
          "name": "",
          "type": "uint256"
        }
      ],
      "stateMutability": "view",
      "type": "function"
    },
    {
      "inputs": [
        {
          "internalType": "address",
          "name": "account",
          "type": "address"
        }
      ],
      "name": "updateCredit",
      "outputs": [
        {
          "internalType": "uint256",
          "name": "credit",
          "type": "uint256"
        }
      ],
      "stateMutability": "nonpayable",
      "type": "function"
    },
    {
      "inputs": [],
      "name": "updateShareIndex",
      "outputs": [
        {
          "internalType": "uint256",
          "name": "_shareIndex",
          "type": "uint256"
        }
      ],
      "stateMutability": "nonpayable",
      "type": "function"
    }
  ],
  "transactionHash": "0x7fa35f6ea9e878781880a8a6fbbe30472bfe57e372af4d0cf95ddac4b8248290",
  "args": [
    "0x1DB2466d9F5e10D7090E7152B68d62703a2245F0",
    "0xb4bF17210844418F9F2D3B90036E11aa40517971",
    "0xFb59Ce8986943163F14C590755b29dB2998F2322"
  ],
  "numDeployments": 3,
  "solcInputHash": "e1e933dd90c2d0d78821c6486450303b",
  "bytecode": "0x60c06040526003805460ff1916600117905534801561001d57600080fd5b506040516109b23803806109b283398101604081905261003c9161008d565b6001600160a01b0392831660805290821660a052600380549190921661010002610100600160a81b03199091161790556100d0565b80516001600160a01b038116811461008857600080fd5b919050565b6000806000606084860312156100a257600080fd5b6100ab84610071565b92506100b960208501610071565b91506100c760408501610071565b90509250925092565b60805160a0516108af610103600039600081816101120152610459015260008181610159015261068b01526108af6000f3fe608060405234801561001057600080fd5b50600436106100a95760003560e01c8063af38d75711610071578063af38d7571461010d578063b260187d1461014c578063c0c2ae5014610154578063c56ad1ad1461017b578063eb82031214610184578063f851a440146101ce57600080fd5b80633a98ef39146100ae57806345c08718146100ca5780634674a930146100dd5780634e71d92d146100f2578063704b6c02146100fa575b600080fd5b6100b760015481565b6040519081526020015b60405180910390f35b6100b76100d8366004610773565b6101e6565b6100f06100eb36600461078e565b6102b0565b005b6100b7610322565b6100f0610108366004610773565b610332565b6101347f000000000000000000000000000000000000000000000000000000000000000081565b6040516001600160a01b0390911681526020016100c1565b6100b76103ed565b6101347f000000000000000000000000000000000000000000000000000000000000000081565b6100b760025481565b6101b3610192366004610773565b60006020819052908152604090208054600182015460029092015490919083565b604080519384526020840192909252908201526060016100c1565b6003546101349061010090046001600160a01b031681565b6000806101f16103ed565b9050806102015750600092915050565b6001600160a01b038316600090815260208190526040902080546001820154600160a01b9161023b91610235908690610568565b9061057b565b61024591906107ce565b816002015461025491906107f0565b600182018390556002820181905560408051848152602081018390529194506001600160a01b038616917ff7240857a4f83123f14a7bc3f77cd32d0ae71ede635c92ebdcc14d5ea8ed018a910160405180910390a25050919050565b60035461010090046001600160a01b031633146103145760405162461bcd60e51b815260206004820152601e60248201527f4f776e65644469737472696275746f723a20554e415554484f52495a4544000060448201526064015b60405180910390fd5b61031e8282610587565b5050565b600061032d3361063b565b905090565b60035461010090046001600160a01b031633146103915760405162461bcd60e51b815260206004820152601e60248201527f4f776e65644469737472696275746f723a20554e415554484f52495a45440000604482015260640161030b565b60038054610100600160a81b0319166101006001600160a01b038416908102919091179091556040519081527f5a272403b402d892977df56625f4164ccaf70ca3863991c43ecfe76a6905b0a19060200160405180910390a150565b60035460009060ff1661043b5760405162461bcd60e51b8152602060048201526016602482015275111a5cdd1c9a589d5d1bdc8e8814915153951154915160521b604482015260640161030b565b6003805460ff191690556001546104555750600254610558565b60007f00000000000000000000000000000000000000000000000000000000000000006001600160a01b0316634e71d92d6040518163ffffffff1660e01b81526004016020604051808303816000875af11580156104b7573d6000803e3d6000fd5b505050506040513d601f19601f820116820180604052508101906104db9190610808565b9050806104ec575050600254610558565b61051b60025461051560015461050f600160a01b8661057b90919063ffffffff16565b90610744565b90610750565b60028190556040518181529092507f8cae7c5b456d193882de6985578f406aefb641501192211706c5aa0a32612fec9060200160405180910390a1505b6003805460ff1916600117905590565b60006105748284610821565b9392505050565b60006105748284610838565b610590826101e6565b506001600160a01b0382166000908152602081905260408120805490918184116105cf576105ca6105c18584610821565b60015490610568565b6105e5565b6105e56105dc8386610821565b60015490610750565b600181905584845560408051868152602081018390529192506001600160a01b038716917fff3664f5f2f8f85ecd8d30ef2aa6773d8a8448219c7421dcbb67957fb3fafba1910160405180910390a25050505050565b6000610646826101e6565b9050801561073f576001600160a01b03828116600081815260208190526040808220600201919091555163a9059cbb60e01b81526004810191909152602481018390527f00000000000000000000000000000000000000000000000000000000000000009091169063a9059cbb906044016020604051808303816000875af11580156106d6573d6000803e3d6000fd5b505050506040513d601f19601f820116820180604052508101906106fa9190610857565b50816001600160a01b03167f47cee97cb7acd717b3c0aa1435d004cd5b3c8c57d70dbceb4e4458bbd60e39d48260405161073691815260200190565b60405180910390a25b919050565b600061057482846107ce565b600061057482846107f0565b80356001600160a01b038116811461073f57600080fd5b60006020828403121561078557600080fd5b6105748261075c565b600080604083850312156107a157600080fd5b6107aa8361075c565b946020939093013593505050565b634e487b7160e01b600052601160045260246000fd5b6000826107eb57634e487b7160e01b600052601260045260246000fd5b500490565b60008219821115610803576108036107b8565b500190565b60006020828403121561081a57600080fd5b5051919050565b600082821015610833576108336107b8565b500390565b6000816000190483118215151615610852576108526107b8565b500290565b60006020828403121561086957600080fd5b8151801515811461057457600080fdfea2646970667358221220576c8c9610cda779f616fc5416f88696aa93354210f01bdd58691658c2e687d164736f6c634300080a0033",
  "devdoc": {
    "kind": "dev",
    "methods": {},
    "version": 1
  },
  "userdoc": {
    "kind": "user",
    "methods": {},
    "version": 1
  },
  "storageLayout": {
    "storage": [
      {
        "astId": 1123,
        "contract": "contracts/OwnedDistributor.sol:OwnedDistributor",
        "label": "recipients",
        "offset": 0,
        "slot": "0",
        "type": "t_mapping(t_address,t_struct(Recipient)1118_storage)"
      },
      {
        "astId": 1125,
        "contract": "contracts/OwnedDistributor.sol:OwnedDistributor",
        "label": "totalShares",
        "offset": 0,
        "slot": "1",
        "type": "t_uint256"
      },
      {
        "astId": 1127,
        "contract": "contracts/OwnedDistributor.sol:OwnedDistributor",
        "label": "shareIndex",
        "offset": 0,
        "slot": "2",
        "type": "t_uint256"
      },
      {
        "astId": 1390,
        "contract": "contracts/OwnedDistributor.sol:OwnedDistributor",
        "label": "_notEntered",
        "offset": 0,
        "slot": "3",
        "type": "t_bool"
      },
      {
        "astId": 2645,
        "contract": "contracts/OwnedDistributor.sol:OwnedDistributor",
        "label": "admin",
        "offset": 1,
        "slot": "3",
        "type": "t_address"
      }
    ],
    "types": {
      "t_address": {
        "encoding": "inplace",
        "label": "address",
        "numberOfBytes": "20"
      },
      "t_bool": {
        "encoding": "inplace",
        "label": "bool",
        "numberOfBytes": "1"
      },
      "t_mapping(t_address,t_struct(Recipient)1118_storage)": {
        "encoding": "mapping",
        "key": "t_address",
        "label": "mapping(address => struct Distributor.Recipient)",
        "numberOfBytes": "32",
        "value": "t_struct(Recipient)1118_storage"
      },
      "t_struct(Recipient)1118_storage": {
        "encoding": "inplace",
        "label": "struct Distributor.Recipient",
        "members": [
          {
            "astId": 1113,
            "contract": "contracts/OwnedDistributor.sol:OwnedDistributor",
            "label": "shares",
            "offset": 0,
            "slot": "0",
            "type": "t_uint256"
          },
          {
            "astId": 1115,
            "contract": "contracts/OwnedDistributor.sol:OwnedDistributor",
            "label": "lastShareIndex",
            "offset": 0,
            "slot": "1",
            "type": "t_uint256"
          },
          {
            "astId": 1117,
            "contract": "contracts/OwnedDistributor.sol:OwnedDistributor",
            "label": "credit",
            "offset": 0,
            "slot": "2",
            "type": "t_uint256"
          }
        ],
        "numberOfBytes": "96"
      },
      "t_uint256": {
        "encoding": "inplace",
        "label": "uint256",
        "numberOfBytes": "32"
      }
    }
  }
}